:020000040800F2
:10000000F0AD0220D1010008E37700082B3F000883
:10001000DF770008390F0008AD9A000800000000E3
:10002000000000000000000000000000159500081E
:100030003D0F000800000000930200081196000820
:100040000B0200080B0200080B02000811940008C4
:100050000B0200080B0200080B0200080B0200084C
:100060000B0200080B0200080B0200080B0200083C
:100070000B0200080B0200080B0200080B0200082C
:100080000B0200080B0200080B0200080B0200081C
:100090000B0200080B0200080B0200080B0200080C
:1000A0000B0200080B0200080B0200080B020008FC
:1000B0000B0200089D9600080B0200080B020008C6
:1000C0000B0200080B0200080B0200080B020008DC
:1000D0000B020008659A00080B0200080B020008DA
:1000E0000B0200088D9200080B0200080B020008AA
:1000F0000B0200080B0200080B0200080B020008AC
:100100000B0200080B0200080B0200080B0200089B
:100110000B0200080B0200080B0200080B0200088B
:100120000B0200080B0200080B0200080B0200087B
:100130000B020008C90F00080B0200080B020008A0
:100140000B0200080B0200080B0200080B0200085B
:100150000B0200080B0200080B0200080B0200084B
:100160000B0200080B0200080B0200080B0200083B
:100170000B0200080B0200080B0200080000000040
:100180000B0200080B0200080B0200080B0200081B
:100190000B0200080B0200080B0200080B0200080B
:1001A0000B0200080B0200080B020008DFF80CD05D
:1001B00000F046FE00480047C9D60108F0AD022015
:1001C00030BF72B6704762B6704780F308887047D8
:1001D0000E488047DFF83800016841F47001016083
:1001E000BFF34F8FDFF82C00016821F04041016020
:1001F000BFF36F8F08480047FEE7FEE7FEE7FEE724
:10020000FEE7FEE7FEE7FEE7FEE7FEE739960008B9
:1002100088ED00E034EF00E0AD010008EFF3098164
:1002200041B1F1EE101A40F8041D20ED200A2949D1
:100230000A6810607047B0EC200A02C8E1EE101A9C
:1002400025490A6810607047EFF3108072B6704756
:1002500080F31088704721484FF0FF0101700020A3
:1002600080F309881E48016881F308881D48012130
:1002700001701D484FF08051016062B6FEE71A48D8
:100280004FF080510160704717484FF08051016076
:10029000704772B6EFF3098028B1203880E8F00F7C
:1002A0000C490968086000B5104880475DF804EB08
:1002B0000F4810490A780270064807490A68026028
:1002C000106890E8F00F203080F309884EF0F40EAB
:1002D00062B670477C0100208401002022ED00E01E
:1002E0009C0100207601002004ED00E0E187000879
:1002F0006B0100206C0100202DE9F05F0546002015
:1003000092469B4688460646814640241BE0284686
:1003100041464746224600F0F6FB53465A46C01A6D
:10032000914110D311461846224600F0DDFB2D1AEC
:1003300067EB01084F4622460120002100F0D4FB64
:1003400017EB00094E41201EA4F10104DFDC4846F2
:1003500031462A464346BDE8F09F000000487047FA
:100360003CFB030810B50446FFF7F8FF0068005D8A
:1003700000F0010010BDA0F14101192900D8203082
:10038000704740EA01039B0703D009E008C9121F28
:1003900008C0042AFAD203E011F8013B00F8013B3F
:1003A000521EF9D27047D2B201E000F8012B491E6B
:1003B000FBD270470022F6E710B513460A46044602
:1003C0001946FFF7F0FF204610BD421C10F8011B34
:1003D0000029FBD1801A704710B5002200E0521CA2
:1003E000835C8C5CA34201D1002BF8D1D8B2E1B27E
:1003F000401A10BD30B504460020034600E05B1CE7
:10040000934203D2E05CCD5C401BF8D030BD034684
:1004100011F8012B00F8012B002AF9D1184670477A
:1004200030B505460020034600E05B1C934205D230
:10043000EC5CC85C201A01D1002CF6D130BD000064
:100440002DE9FF4F087883B09946FF2805D0491C55
:100450002D2804D00024002008E000200BE0012417
:10046000F9E700EB800003EB4000491C0B78FF2B01
:10047000F7D104B1404200230293147819461D4677
:100480002D2C01D02B2C04D1521C2D2C13D0002448
:100490000294AA461478FF2C0FD00A25A3FB0578F6
:1004A00001FB05814FF0000C03FB0C11521CE319FA
:1004B0004AEB0101EEE70124EAE7814453EA010037
:1004C00002D019F5C87F06DA03980021C0E90011AF
:1004D00007B0BDE8F08F0025AE4E2F46DFF8B8829A
:1004E000184600F06DFCCDE90001B9F1000002DA18
:1004F000C9F1000400E004460023A74A1AEB030BED
:1005000042EB045A12E0E00707D02A463346384649
:10051000414600F0ECF9074688462A463346104625
:10052000194600F0E4F905460E466410002CEAD1A5
:10053000DDE90001B9F1000F5A46534606DA00F032
:10054000D0FB3A46434600F0CCFB05E000F0CFF983
:100550003A46434600F0CBF9029A0AB181F00041D5
:10056000039AC2E90001B3E72DE9FF4F1F468DB0A2
:10057000D7E901464FF0FF382E2045464FF00009DD
:100580000B90B9696D1C0E988847396A8246884776
:100590000028F6D1BAF1FF3F0AD024F4D064002E2F
:1005A00011DDBAF12B0F08D0BAF12D0F0BD102E0FB
:1005B000404611B08DE744F48064B9696D1C0E9813
:1005C00088478246761E6946600501D52D2000E0E9
:1005D0002B208DF8000001F1010B0DF1200809E03E
:1005E000B9696D1C0E98884782460F9844F40074D0
:1005F000761E0560002E02DDBAF1300FF0D00B99A7
:100600008A453ED144F0800406E00F99681CA9F1A8
:10061000010944F400740860B9696D1C761E0E98D7
:10062000884782463028F0D02BE00B998A4505D1C7
:10063000200603D444F08004761E18E0504609F0EA
:1006400039FE08B30DF11301761E44F400748B4596
:1006500008D2AAF130000BF8010B200607D5A9F14A
:10066000010003E0200602D409F101008146A00543
:1006700002D50F99681C0860B9696D1C0E988847EF
:100680008246002ED1DC53E0002E51DDBAF1650F19
:1006900002D0BAF1450F4BD1A00549D5B9696D1CFF
:1006A00024F44074761E0E9888478246002E0CDD96
:1006B0002B2804D0BAF12D0F07D144F48074B96906
:1006C0006D1C0E9888478246761EE00501D52D21C7
:1006D00000E02B2108F8011BCDF82C8021E00DF162
:1006E0002901761E44F4007488450CD2AAF130002A
:1006F00010F0FF0088F8000002D10B99884509D955
:1007000008F1010806E0E00501D5244801E042F2C5
:100710000F708146B9696D1C0E98884782460F9804
:100720000560002E04DD504609F0C4FD0028D6D136
:10073000F9690E988847FF208BF8000088F80000C0
:100740000020069007904B466A4608A906A8FFF7C6
:1007500077FEA00502D46FF001002AE714F0240F01
:100760000AD0E00714D1DDE906123868031D3B60AA
:100770000068C0E900120BE0DDE9060100F044FB6F
:100780000146E00704D13868021D3A600068016044
:1007900028460EE7000014400000F03FF1D8FFFFAC
:1007A0002DE9FE4F804681EA0300C00F0C46009001
:1007B00021F0004123F00045B8EB0200A94105D229
:1007C0004046214690461C460B46024623F0004018
:1007D000104347D0270DC7F30A00C3F30A51029014
:1007E000401A019040286BDAC3F3130040F4801BD9
:1007F0000098924620B10023D2EB030A63EB0B0B67
:1008000001985946C0F14002504600F06DF9064685
:100810000D4650465946019A00F085F910EB080044
:100820006141002487EA115284EAE7731A4340D0F9
:10083000009A62B3019A012A4FEA075215DC001BA5
:1008400061EB02014FF0004202EA0752CDE900429B
:10085000001C41F5801132462B4600F0F4F903B03C
:10086000BDE8F08F40462146F9E7001B61EB02012D
:10087000001C41F5801300185B412018A2F50017F9
:1008800047EB030140EAD570B6196D4111E06D08E0
:100890004FEA360645EAC0754FEA0752001B61EB86
:1008A0000201001C41F5801149084FEA300000198F
:1008B000514132462B4603B0BDE8F04F00F0B4B9C9
:1008C0000098012240000023D0EB020263EBE073AA
:1008D000009821464FEAE074B8EB000061EB040198
:1008E000E9E783F000435BE781F0004158E72DE939
:1008F000FE4F81EA030404F0004421F0004100941B
:100900004FF0000B23F0004350EA01045ED052EA9E
:1009100003045BD0C3F30A54C1F30A552C44A4F278
:10092000F3340194A0FB0254C1F3130141F480118C
:10093000C3F3130343F4801301FB024400FB034E93
:10094000840A970A44EA815447EA8357A4FB07685C
:1009500002958D0A05FB07854FEA932C04FB0C5486
:100960002705029D4FEA065847EA1637B5EB0805FA
:100970006EEB070C870E920E47EA811742EA83124C
:10098000A7FB0201B6EB0B0164EB00042B0D43EA5D
:100990000C335E1844EB1C50DA465146E7FB02016B
:1009A000C5F313044FEA0B3343EA14534FEA0432FE
:1009B000019C43EA0603A4F10C040294009CCDE9D7
:1009C00000B400F040F903B0BDE8F08F002001460C
:1009D000F9E70EB540F2334102910021CDE9001153
:1009E0000A460B4600F02FF903B000BD70B5C1F305
:1009F0000A5201F000450024C1F3130140F2FF3315
:100A000041F480119A4201DA002070BD40F2334374
:100A10009A42A2F2334203DC524200F074F800E042
:100A200090402C43F1D0404270BDC1F30A5210B542
:100A3000C1F3130140F2FF3341F480119A4201DA0D
:100A4000002010BD40F233439A42A2F2334203DC4D
:100A5000524200F058F810BD904010BD30B5041E51
:100A600071F1000404DB4FF00044404264EB0101EB
:100A7000141E73F1000405DB1C464FF00043524284
:100A800063EB04038B4208BF824230BD30B5041EC5
:100A900071F1000404DB4FF00044404264EB0101BB
:100AA000141E73F1000405DB1C464FF00043524254
:100AB00063EB0403994208BF904230BD30B50B464A
:100AC000014600202022012409E021FA02F59D427E
:100AD00005D303FA02F5491B04FA02F52844151E52
:100AE000A2F10102F1DC30BD202A04DB203A00FA39
:100AF00002F1002070479140C2F1200320FA03F375
:100B0000194390407047202A04DB203A21FA02F072
:100B10000021704721FA02F3D040C2F12002914037
:100B2000084319467047202A06DBCB17203A41FAC2
:100B300002F043EAE07306E041FA02F3D040C2F16A
:100B400020029140084319467047426842B101684B
:100B500011F8013B23B1521EC0E90012184670473C
:100B60000121C160881E704742685AB1C36801689C
:100B700043B983688B4205D0491E521CC0E900125C
:100B8000002070474FF0FF30704700000FB4002383
:100B900000B589B00CA900910B996FF00042CB60B1
:100BA0001E4B06931E4B07930423CDE901321D4AC9
:100BB000089202466B460020FFF7D6FC09B05DF8AC
:100BC00014FB70B586B006464FF0FF300091CDE9BA
:100BD0000101002015460C4604903246694604A8DF
:100BE000FFF7D4FF02460498211825B108B1084642
:100BF00000E020462860049800280DD0002A02DD7D
:100C00000098884208D0081B0094CDE901043246C0
:100C1000694604A8FFF7BAFF06B070BD4B0B000889
:100C2000690B00086503000810B5141E73F1000479
:100C300008DA401C41F1000192185B411A4301D1CE
:100C400020F0010010BD2DE9F04D92469B4611B1F8
:100C5000B1FA81F202E0B0FA80F220329046FFF75A
:100C600043FF04460F4640EA0A0041EA0B0153469F
:100C70005A46084313D0114653EA010019D0C8F16F
:100C800040025046FFF73FFF05460E465046594684
:100C90004246FFF729FF084305D0012004E0204623
:100CA0003946BDE8F08D0020054346EAE0762C4346
:100CB00037430A986305E40AA0EB08000022FD0A06
:100CC00044EA47540A3002D500200146E9E701050D
:100CD00010196941DDE9084500196941BDE8F04D89
:100CE000A2E72DE9F04D81EA030404F0004B21F066
:100CF000004514464FF0000A23F0004150EA050277
:100D000020D054EA01021DD0C5F30A570246C5F3AC
:100D10001303C1F31300C1F30A5640F4801543F4E2
:100D20008013A7EB0608101BD64608F2FD3873EBBC
:100D3000050002D308F1010801E092185B41B8F107
:100D4000000F03DA00200146BDE8F08D00204FF4CB
:100D50008011064684460EE0171B73EB050705D38A
:100D6000121B63EB050306434CEA010C49084FEAEA
:100D7000300092185B4150EA0107EDD152EA0300BE
:100D800012D082EA040083EA0501084305D0101B53
:100D9000AB4106D20122002306E000224FF00043BF
:100DA00002E06FF0010253101AEB06004CEB085101
:100DB00010EB0A0041EB0B01BDE8F04DFFF734BF2B
:100DC0000EB540F2334202920022CDE900221346D2
:100DD000FFF739FF03B000BDC1F30A52C1F313019D
:100DE00040F2FF3341F480119A4202DA00200146BA
:100DF000704740F233439A42A2F2334202DC52423D
:100E0000FFF781BEFFF770BE01F0004330B421F060
:100E1000004150EA010206D00A0DA2F56072C1F34A
:100E20001301002A02DC30BC00207047440F44EA62
:100E3000C104C100E01830BC00EBC25000F012B891
:100E4000064C074D06E0E06840F0010394E8070017
:100E500098471034AC42F6D3FFF7ACF94CFD0308C9
:100E60006CFD03080029A8BF7047401C490008BF5B
:100E700020F00100704710B4B0FA80FC00FA0CF0CA
:100E800050EA010404BF10BC704749B1CCF1200402
:100E900021FA04F411FA0CF118BF0121214308438F
:100EA000A3EB0C01CB1D4FEA00614FEA102042BFBB
:100EB000002010BC704700EBC35010440029A4BFB1
:100EC00010BC7047401C490008BF20F0010010BC56
:100ED000704770B58C1810F8015B15F0070301D14D
:100EE00010F8013B2A1106D110F8012B03E010F88D
:100EF000016B01F8016B5B1EF9D12B0705D40023B0
:100F0000521E0DD401F8013BFAE710F8013BCB1A51
:100F1000921C03E013F8015B01F8015B521EF9D546
:100F2000A142D8D3002070BD70477047704770470A
:100F3000704770477047704700BFFEE77047016811
:100F400001F58051896941F00202016801F5805183
:100F50008A617047016801F58051896941F4005246
:100F6000016801F580518A61704738B50446002058
:100F70000090206800F58050806940F4801120685E
:100F800000F580508161206800F5805080690090F4
:100F9000012000F00EFB0099206800F5805081616F
:100FA00038BD014600200A6802F0004252B90A68C2
:100FB00002F4004232B90A6802F4807212B10A687F
:100FC000C2F30D407047000010B506F083FC01E04D
:100FD0001CF02AF80A49886AFFF7E3FF0028F7D1D6
:100FE00040210748006800F58050416189020448AB
:100FF000006800F58050416106F07EFC10BD0000E5
:101000004C6B002030B503461479557944EA05202D
:10101000084C0C442064D4782406957844EA0544AE
:10102000557844EA0524157844EA0500014C0C443F
:10103000606430BD0080024070B5AEB004460E461C
:10104000002526B14FF40061E160C900A1600020D5
:10105000119012901390149015901690E06918B9A1
:101060004FF48060179001E0002017904FF400705B
:101070001890002019901A901B901C901D904020F1
:101080001E9000201F902090219022902390249069
:1010900025902690802027900020289029902A9043
:1010A0002B902C902D902068056871480540DDE953
:1010B000110108431399084314990843A168084390
:1010C0001599084316990843E1680843179908439E
:1010D00018990843199908431A9908431B9908431A
:1010E00005432068056020680568012000F061FA6A
:1010F00020680560DDE91C0108431E9908431F991B
:1011000008432099084321990843229908432399C9
:1011100008432168486020684568012000F049FACA
:101120002068456024982168886025982168C860F7
:10113000206885694FF641700540DDE9261040EAD8
:10114000014028990843299908432A9908432B9973
:10115000084305432068856120688569012000F007
:1011600028FA20688561DDE92C0108432168C861FF
:101170002068C569012000F01CFA2068C5610020C4
:1011800001904FF000700290002003904FF4001087
:101190000490002005900690079008900420099084
:1011A000C0050A9040120B9080010C9040120D90E7
:1011B00080200E9000200F901090206800F5805045
:1011C00085692C480540DDE901010843039908437E
:1011D0000499084305990843069908430799084369
:1011E00008990843099908430543206800F5805091
:1011F0008561206800F580508569012000F0D9F9EB
:10120000206800F580508561DDE90A0108430C99EA
:1012100008430D9908430E9908430F9940EA81004D
:101220001099084340F40001206800F580500160E7
:10123000206800F580500568012000F0BAF92068A8
:1012400000F580500560A069012809D1206800F5EB
:101250008050C06908490843216801F58051C86180
:10126000002120466269FFF7CDFE2EB070BD000060
:101270000F8120FF233FDEF84000010038B504460F
:10128000002000902068006840F004002168086099
:10129000206800680090012000F08BF90098216818
:1012A000086038BD38B5044600200090206800680A
:1012B00040F0080021680860206800680090012064
:1012C00000F077F900982168086038BD10B54FF438
:1012D000A07100201DF036F80D490860A021002003
:1012E0001DF030F80B49086043F6883100201DF0EE
:1012F00029F80949086041F6C45100201DF022F880
:101300000649086000BF00BF00BF00BF002010BD3D
:1013100034000020380000203C0000204000002065
:1013200070B504461D460023B5F5804F13D154F81F
:1013300022300C480340D1E9000640EA06108E68CE
:1013400040EA06208E8940EA06408E693043034316
:1013500044F8223003E06FF0704044F8220000208F
:1013600070BD00000000F0CF10B5024600230868F1
:1013700052F820301B480340D1E901042043CC68D7
:1013800020430C6920434C6920438C692043CC697D
:1013900020430C6A20434C6A20438C6A2043CC6A69
:1013A0002043CC6B20430C6B20434C6B2043034306
:1013B0008868082801D143F04003086842F82030CB
:1013C000486BB0F5801F0AD1086840B14FF48070B7
:1013D00008614C6B086920431468204310600020AA
:1013E00010BD00008000E0FF30B503461446002227
:1013F000601C53F8202002F04042D1E9000540EA89
:1014000005108D6840EA05208D8940EA0545088A67
:10141000401E45EA0055087D801E45EA00608D6942
:1014200028430243601C43F82020186800F4801011
:1014300038B1586820F47002088A401E42EA00520F
:101440005A60002030BD30B50246002300240868F1
:10145000012816D013686FF30E03D1E90105284364
:10146000CD6828430D6928434D6928438D69284379
:10147000CD6928430D6A28434D6A2843034313600E
:1014800019E013686FF30E03D1E9070528434D6A8D
:101490002843034354686FF30E04D1E90105284340
:1014A000CD6828430D6928434D6928438D69284339
:1014B000044313605460002030BD0246506940EA86
:1014C0004100506100207047F8B506460C461546AD
:1014D000002000900027D4E900010843A168491EBC
:1014E00040EA4110E16840EA4120009000983061F4
:1014F00000F090FD074609E0681C38B125B100F006
:1015000089FDC01BA84201D90320F8BDB06900F0D5
:1015100020000028F0D100BFF7E770B5034615465C
:1015200000220024012D1FD09A6802F07042086842
:10153000401E4E68761E40EA06168868401E46EA3F
:101540000026C868401E46EA0036088A401E46EA61
:101550000046888A401E46EA0056087E401E46EA3B
:10156000006002439A6022E0DA6802F07042086884
:10157000401E4E68761E40EA06168868401E46EAFF
:101580000026088A401E46EA0046087E401E46EABB
:10159000006002439C6804F07044C868401E060363
:1015A000888A401E46EA00500443DA609C600020AE
:1015B00070BD31B5002400F02DFD044600BF00F0E1
:1015C00029FD001B00998842F9D338BD70B5044647
:1015D0000D461646002200BF94F84500012801D1AF
:1015E000022070BD012084F8450000BF022084F86D
:1015F0004400A56200221FE005EB42114FF00040BD
:10160000086044F2F4504860C2EBC21000EB4000A6
:1016100006EB80008860A069012803D1486820F0AB
:1016200000404860581E904204D905EB421020301B
:10163000C86000E0CD60521C9A42DDD3206800F5FE
:101640008050C560012084F8440000BF002084F869
:10165000450000BF00BFC4E770B504460D461646FE
:10166000002200BF94F84500012801D1022070BD7E
:10167000012084F8450000BF022084F84400E562A0
:1016800000221BE005EB42114FF480100860C2EB12
:10169000C21000EB400006EB80008860E06918B9DA
:1016A000086840F440000860581E904204D905EBD9
:1016B00042102030C86000E0CD60521C9A42E1D355
:1016C000206800F580500561012084F8440000BFC7
:1016D000002084F8450000BF00BFC8E70146002293
:1016E00000BF91F84500012801D102207047012078
:1016F00081F8450000BF022081F84400886A006834
:1017000000F00040002838D1886A006800F480703A
:10171000F0B1886B401C8863886B012801D1886A0E
:1017200008638B6A4B63886A0068C0F30D40021F30
:10173000CA63086B83680B64886AC068886201208A
:1017400081F8440000BF002081F8450000BFCDE7CC
:10175000886A006800F4007048B1886A0863002352
:101760004B6301238B63886AC068886205E0886BDD
:10177000401C8863886AC0688862012081F8440040
:1017800000BF002081F8450000BF0120AEE7000047
:101790002DE9FC410446002500200190884E0027D9
:1017A000804614B90120BDE8FC8194F8440028B9B2
:1017B000002084F84500204600F010F900BF00200A
:1017C00000908048006840F480407E4908600846E8
:1017D000006800F48040009000BF00BF7A480068B5
:1017E00020F400007849086008460068216A084330
:1017F00075490860206800F58050006840F00101DC
:10180000206800F58050016000BF206800F580501E
:10181000006800F001000028F7D12068056925F074
:101820001C0501F0E5F906466848864205D368487C
:10183000864202D245F008051AE06548864205D383
:101840005F48864202D245F00C0511E05C488642B2
:1018500003D36048864200D20AE05E48864205D340
:101860005D48864202D245F0040501E045F01005CE
:1018700020680561606800287ED000F0CBFB074639
:1018800000BF01AA0121204600F04EF900F0C2FB82
:10189000C01BB0F5FA6F0FD94FF001084146204642
:1018A000FFF7CAFB012084F8440000BF002084F841
:1018B000450000BF032076E7019800F004000428EB
:1018C000DFD182020021204600F03FFA48B14FF0FC
:1018D000010841462046FFF7AFFB012084F8440091
:1018E00061E700F097FB074600BF01AA01212046EF
:1018F00000F01AF900F08EFBC01BB0F57A7F0FD90B
:101900004FF0010841462046FFF796FB012084F87E
:10191000440000BF002084F8450000BF032042E7D8
:10192000019800F020002028DFD101AA1F212046C5
:1019300000F0FAF848B14FF0010841462046FFF7A1
:101940007BFB012084F844002DE7019800F0100093
:1019500020B14FF40061E16002E00DE00021E160A0
:10196000019800F00400042802D10021A1601DE0CC
:101970004FF48041A16019E0E068C0F3CF00A16896
:10198000C1F34F0140EA01020021204600F0DDF9D9
:1019900048B14FF0010841462046FFF74DFB0120BA
:1019A00084F84400FFE6FF20FFF703FE414620468F
:1019B000FFF742FB012084F844000020F3E600001A
:1019C000008793034438024004380140002D310160
:1019D000C00E160200E1F50580D1F00810B586B002
:1019E000044600BF00BF002000904A48006840F055
:1019F0000070484908600846006800F000700090D8
:101A000000BF00BF00BF002000900846006840F003
:101A1000806008600846006800F08060009000BFA9
:101A200000BF00BF002000900846006840F0006042
:101A300008600846006800F00060009000BF00BF2A
:101A400000BF00BF002000900846006840F0010081
:101A500008600846006800F00100009000BF00BF69
:101A600000BF002000900846006840F002000860B7
:101A70000846006800F00200009000BF00BF00BFF1
:101A8000002000900846006840F004000860084606
:101A9000006800F00400009000BF00BF00BF0020FD
:101AA00000900846006840F0400008600846006862
:101AB00000F04000009000BF00BF8620019002208F
:101AC000029000200390032004900B20059001A9B0
:101AD000114800F083F94FF40060019001A90F480C
:101AE00000F07CF93220019001A90D4800F076F950
:101AF0004FF4C040019001A90A4800F06FF900229C
:101B000011463D2000F0B8FC3D2000F0A8FC06B0D6
:101B100010BD0000303802400000024000040240C6
:101B200000080240001802402DE9F04104460E462C
:101B300017460025A84694F84400822802D10220C6
:101B4000BDE8F081822084F844002068056905F032
:101B50001C05208A4FF4784101EAC0200543481152
:101B600000EA8610054325F0020545F001052068CE
:101B7000056100F04FFA804612E000F04BFAA0EB4E
:101B80000800B0F5803F09D3012084F8440000BF6D
:101B9000002084F8450000BF0320D1E720680569D4
:101BA00005F001000028E8D12068406980B2386063
:101BB000012084F844000020C2E710B5044600BFAD
:101BC00094F84500012801D1022010BD012084F8BD
:101BD000450000BF022084F844002046FFF762FB66
:101BE0002046FFF74BFB2046FFF7BFF92046FFF7E3
:101BF000B1F92046FFF7A3F9012084F8440000BFA3
:101C0000002084F8450000BF00BFDEE770B5024643
:101C100000230025002400BF92F84500012801D1CF
:101C2000022070BD012082F8450000BF022082F82A
:101C3000440049B9012082F8440000BF002082F826
:101C4000450000BF0120ECE7D06A006800F00040CA
:101C500048B1122082F8440000BF002082F84500FD
:101C600000BF0120DDE740F2F450814208D9B1FB0A
:101C7000F0F3B1FBF0F600FB161010B15B1C00E0B6
:101C80000123012B13D1D06A006840F04050D66A7E
:101C90003060C1F30C00D66A7060D06A006840F012
:101CA0000040D66A3060D06AC068D06232E000245A
:101CB0002EE0D06A006820F04050D66A30602CB91F
:101CC000D06A006840F08050D66A306040F2F4502C
:101CD000D66A7060581EA04210D1D06A006840F0E9
:101CE0000050D66A3060581EC0EBC01000EB4000B8
:101CF000A1EB8005C5F30C00D66A7060D06A00685D
:101D000040F00040D66A3060D06AC068D062641C7F
:101D10009C42CED3106800F58050406900F004006A
:101D200048B10426106800F580504661002610680E
:101D300000F580504660012082F8440000BF00207A
:101D400082F8450000BF00BF6BE72DE9F041044673
:101D50000E4617460025A84694F84400422802D1B2
:101D60000220BDE8F081422084F844002068056923
:101D700005F01C05208A4FF4784101EAC020054394
:101D8000481100EA8610054345F0020545F00105BB
:101D9000B8B2216848612068056100F03BF98046CF
:101DA00012E000F037F9A0EB0800B0F5803F09D34E
:101DB000012084F8440000BF002084F8450000BFE3
:101DC0000320CEE72068056905F001000028E8D16E
:101DD000012084F844000020C3E70000F8B5024663
:101DE0000B460025002400200021E6E0012606FA2B
:101DF00001F51E6806EA0504AC4273D15E68022E46
:101E000002D05E68122E13D1CF0802F1200656F8D8
:101E100027004E07F70E0F26BE40B0434F07FF0EB8
:101E20001E69BE403043CF0802F1200646F8270065
:101E300010684F000326BE40B0431E7906F003062B
:101E40004F00BE40304310605E68012E08D05E68CF
:101E5000022E05D05E68112E02D05E68122E13D1BC
:101E600090684F000326BE40B0434F00DE68BE407E
:101E700030439060506801268E40B0431E79C6F30F
:101E800000168E4030435060D0684F000326BE409D
:101E9000B0434F009E68BE403043D0605E6806F09D
:101EA0008056B6F1805FA8D100BF00260096454E4F
:101EB000366846F48046434F3E603E46366806F438
:101EC0008046009600BF00BF3F4E8F0856F827009F
:101ED0008E07370F0F26BE40B0433C4EB24202D1B0
:101EE00000262EE068E03A4EB24201D1012628E0F9
:101EF000384EB24201D1022623E0374EB24201D120
:101F000003261EE0354EB24201D1042619E0344EBC
:101F1000B24201D1052614E0324EB24201D106266A
:101F20000FE0314EB24201D107260AE02F4EB242F5
:101F300001D1082605E02E4EB24201D1092600E06B
:101F40000A268F073F0FBE4030431F4E8F0846F8CA
:101F50002700284E3068A0435E6806F48036B6F548
:101F6000803F00D12043234E3060361D3068A043AF
:101F70005E6806F40036B6F5003F00D120431D4EE2
:101F8000361D3060361D3068A0435E6806F480164A
:101F9000B6F5801F00D12043164E08363060361D3E
:101FA0003068A0435E6806F40016B6F5001F00D145
:101FB0002043104E0C363060491C1029FFF416AF38
:101FC000F8BD0000443802400838014000000240DB
:101FD0000004024000080240000C024000100240D1
:101FE0000014024000180240001C02400020024081
:101FF00000240240003C0140024613690B400BB133
:10200000012000E0002070470AB1816101E00B046B
:102010008361704701480068704700001800002085
:1020200002480068401C0149086070471800002001
:1020300010B50D48006840F400700B490860084670
:10204000006840F4806008600846006840F48070D2
:102050000860052000F04EFA0F2000F007F800F0AD
:10206000F9F9002010BD0000003C024070B50446A4
:1020700000F0BEFD4FF47A71B0FBF1F5284601F097
:10208000BDFC00222146501E00F0F6F9002070BD74
:1020900070B504460E46154600BF94F8A00001280E
:1020A00001D1022070BD012084F8A00000BF0220F1
:1020B00084F8A10005EB850101EBC50204F13801AC
:1020C00001EB820034223146FEF75BF92A463146A5
:1020D000204605F07BFA01202168486284F8A100BF
:1020E00000BF002084F8A00000BF00BFDAE70000B6
:1020F00070B50446002500260CB9012070BD94F887
:10210000A10028B9002084F8A000204600F084F83F
:10211000022084F8A1002068806920F070402168C6
:102120008861D4E901010843E16808432169084353
:102130002168896908432168886120688068354979
:10214000084021688860A08A050420688068A16929
:1021500029430843216888602068C0682D490840E9
:102160002168C860A08B05042068C068216A2943E3
:1021700008432168C8602068006926490840216832
:102180000861A08C050420680069A16A29430843FE
:1021900021680861206840691E490840216848613B
:1021A000A08D050420684069216B294308432168FC
:1021B000486194F83500050294F83600060420685A
:1021C000C06A00F07F402168C86246EA050094F8C2
:1021D000341008432168C96A08432168C86220682E
:1021E000406B40F00400216848632068406B40F079
:1021F0000200216848632068806940F0010021687E
:1022000088610020C4F8A400012084F8A100002007
:1022100074E7000000F800F010B586B0044600BF77
:10222000002000904D48006840F080604B490860F5
:102230000846006800F08060009000BF00BF00BF4B
:102240000020009045481438006840F400004349DD
:10225000143908600846006800F40000009000BFD0
:1022600000BF00BF002000900846006840F0020058
:1022700008600846006800F00200009000BF00BF40
:1022800000BF002000900846006840F02000086071
:102290000846006800F02000009000BF00BF00BFAB
:1022A000002000900846006840F0400008600846A2
:1022B000006800F04000009000BF00BF00BF002099
:1022C00000900846006840F08000086008460068FA
:1022D00000F08000009000BF00BF00BF0020009011
:1022E0000846006840F4807008600846006800F402
:1022F0008070009000BF00BF20200190012002905C
:1023000003900320049001A91548FFF767FD4FF4DF
:10231000806001900220029000200390032004902E
:102320000E20059001A90F48FFF758FD4FF40C60EF
:10233000019001A90C48FFF751FD4FF47E40019038
:1023400001A90A48FFF74AFD40F2F760019001A990
:102350000748FFF743FD06B010BD000044380240B7
:10236000000402400014024000180240001C024019
:10237000002002402DE9F04104460E4617469846DB
:1023800000BF94F8A000012802D10220BDE8F0812E
:10239000012084F8A00000BF022084F8A10008EB0F
:1023A000880000EBC80104F1380000EB81052E60C5
:1023B000A86A30446860AF60E86A3844E860424622
:1023C0002946204605F002F901202168486284F878
:1023D000A10000BF002084F8A00000BF00BFD5E727
:1023E0002DE9F04105460E461746984600BF95F880
:1023F000A000012802D10220BDE8F081012085F86B
:10240000A00000BF022085F8A10008EB880000EBC7
:10241000C80105F1380000EB81040020206020682D
:10242000304460600020A060A0683844E060A6628C
:10243000E76242462146284605F0C8F8012029688F
:10244000486285F8A10000BF002085F8A00000BF09
:1024500000BFD1E708B50020009000BF08BD00BF55
:1024600000F01F02012191404209920002F1E02296
:10247000C2F8001100BF70472DE9F05F80460D469D
:102480001646002705F0AEF9074639462A46334678
:1024900001F00700C0F1070ABAF1040F02D94FF0AA
:1024A000040A01E0C0F1070AD14600F1040ABAF1BA
:1024B000070F02D24FF0000A01E0A0F1030AD44650
:1024C0004FF0010A0AFA09FAAAF1010A0AEA020A15
:1024D0000AFA0CFA4FF0010B0BFA0CFBABF1010BF3
:1024E0000BEA030B4AEA0B042146404605F082F949
:1024F000BDE8F09F00BF00F00702064B19684FF6D9
:10250000FF031940044B0B4343EA0221014B1960BE
:1025100000BF70470CED00E00000FA0538B500245C
:1025200000BF002000902348006840F080502149FF
:1025300008600846006800F08050009000BF00BFAF
:102540000120010491FAA1F1B1FA81F11A4A42F88D
:102550002100FFF75FFD044607E0FFF75BFD001B6E
:10256000B0F57A7F01D9032038BD1448406800F4E3
:102570008030B0F5803FF0D10120410491FAA1F103
:10258000B1FA81F10C4A42F82100FFF743FD0446FD
:1025900007E0FFF73FFD001BB0F57A7F01D903206C
:1025A000E2E70648406800F40030B0F5003FF0D1A3
:1025B0000020D9E74038024000000E420070004081
:1025C0000120010291FAA1F1B1FA81F1014A42F828
:1025D0002100704700000E42F8B504460025002691
:1025E000207800F0010020B9207800F002000228D5
:1025F00066D10020CC498866FFF70CFD054606E051
:10260000FFF708FD401B642801D90320F8BDC74827
:102610000068C0F3C0600028F2D1207800F001000B
:1026200098B147F6C07191FAA1F1B1FA81F16068F1
:1026300088404FF0E04292FAA2F2B2FA82F2A16828
:1026400091400843B94984310860207800F00200C5
:10265000022821D1B5488430006800F0E0404FF0F6
:10266000E04191FAA1F1B1FA81F120FA01F6606836
:102670008101207B41EA006040EA0670AB49843169
:102680000860AA488C30006820F01F00E169491EEC
:102690000843A6498C3108600120A3498866FFF7EA
:1026A000B9FC054606E0FFF7B5FC401B642801D9DC
:1026B0000320ABE79D480068C0F3C0600028F2D05B
:1026C000207800F00400042804D0207800F00800EE
:1026D00008287DD1002094490867FFF79BFC054638
:1026E00006E0FFF797FC401B642801D903208DE723
:1026F0008E480068C0F340700028F2D1207800F0C6
:102700000400042834D189488830006800F0E04093
:102710004FF0E04191FAA1F1B1FA81F120FA01F60E
:1027200047F6C07191FAA1F1B1FA81F120698840B0
:102730004FF0706292FAA2F2B2FA82F261699140AD
:1027400008434FF0E04191FAA1F1B1FA81F106FAA4
:1027500001F10843754988310860081D006820F4BC
:10276000F851206A401E41EA002070498C3108600F
:10277000207800F00800082834D16C4888300068C0
:1027800000F070604FF0706191FAA1F1B1FA81F13F
:1027900020FA01F647F6C07191FAA1F1B1FA81F180
:1027A000206988404FF0706191FAA1F1B1FA81F18E
:1027B00006FA01F108434FF0E04292FAA2F2B2FAAF
:1027C00082F2A1699140084358498831086000E0CD
:1027D0001CE0081D006820F44030616A084353493A
:1027E0008C310860012050490867FFF713FC05464B
:1027F00006E0FFF70FFC401B642801D9032005E722
:102800004A480068C0F340700028F2D0207800F0F9
:10281000200020287DD100BF002000904348403098
:10282000006840F080504149403108600846006827
:1028300000F08050009000BF00BF3D48006840F4A9
:1028400080703B490860FFF7E5FB054606E0FFF7AF
:10285000E1FB401B642801D90320D7E63448006817
:1028600000F480700028F2D030487030006800F426
:102870004070218D01F4407188424AD02B4870305D
:10288000006820F4407601202A4908600020086092
:1028900026487030066006F0020098B1FFF7BAFBD8
:1028A000054608E0FFF7B6FB401B41F2883188423D
:1028B00001D90320AAE61D4870300068C0F340002B
:1028C0000028EFD000BF208D00F44070B0F5407FAD
:1028D0000CD116480830006820F4F810164AA16A96
:1028E0001140084311490831086007E00F480830DB
:1028F000006820F4F8100D49083108600B4870306A
:102900000068218DC1F30B0108430849703108604C
:1029100000BF207800F01000102803D194F82C009C
:1029200006490860002071E6000047420038024076
:1029300000700040400E4742FFFCFF0FE01147428D
:1029400070B504460E460025A748006800F00F0049
:10295000B0426FD2A4490E700846006800F00F0024
:10296000B04201D0012070BD207800F002000228A2
:1029700007D19E48006820F0F000A16808439B49F9
:102980000860207800F0010000283ED0606801282F
:1029900007D1964808380068C0F34040B8B9012014
:1029A000E1E76068022802D06068032807D18F48F9
:1029B00008380068C0F3406048B90120D3E78B486D
:1029C00008380068C0F3400008B90120CBE7874809
:1029D000006820F003006168084384490860FFF73D
:1029E00019FB05466068012810D108E0FFF712FBCB
:1029F000401B41F28831884201D90320B3E77B486C
:102A0000006800F00C000428F0D1CDE060680228D6
:102A100011D108E0FFF7FEFA401B41F288318842ED
:102A200001D903209FE77148006800F00C000828D6
:102A3000F0D1B9E024E06068032810D108E0FFF786
:102A4000E9FA401B41F28831884201D903208AE724
:102A50006648006800F00C000328F0D1A4E008E00C
:102A6000FFF7D8FA401B41F28831884201D9032090
:102A700079E75E48006800F00C000028F0D193E090
:102A8000207800F00200022807D15848006820F0A2
:102A9000F000A168084355490860207800F0010063
:102AA000002877D06068012807D1504808380068AE
:102AB000C0F34040B8B9012055E76068022802D051
:102AC0006068032807D1494808380068C0F34060AF
:102AD00048B9012047E7454808380068C0F340007E
:102AE00008B901203FE74148006820F00300616811
:102AF00008433E490860FFF78DFA054660680128E3
:102B000010D108E0FFF786FA401B41F28831884275
:102B100001D9032027E73548006800F00C0004289D
:102B2000F0D137E06068022810D108E0FFF772FAB0
:102B3000401B41F28831884201D9032013E72B481A
:102B4000006800F00C000828F0D123E0606803283A
:102B500010D108E0FFF75EFA401B41F2883188424D
:102B600001D90320FFE62148006800F00C0003288B
:102B7000F0D10FE008E0FFF74DFA401B41F2883139
:102B8000884201D90320EEE61848006800F00C00E6
:102B90000028F0D114490E700846006800F00F00BC
:102BA000B04201D00120DEE6207800F004000428C5
:102BB00007D10E48006820F4E050E16808430B4953
:102BC0000860207800F00800082808D1074800684D
:102BD00020F46040216940EAC100044908600F20E8
:102BE000FFF744FA0020BEE6003C024008380240ED
:102BF00010B500F045F80949096801F0F001F0222C
:102C000092FAA2F2B2FA82F2D140054A515CC8406F
:102C1000044908600846006810BD000008380240FA
:102C2000F47902080000002010B5FFF7E1FF074922
:102C3000096801F4E0514FF4E05292FAA2F2B2FABC
:102C400082F2D140024A515CC84010BD08380240AF
:102C5000F479020810B5FFF7CBFF0749096801F4C2
:102C600060414FF4604292FAA2F2B2FA82F2D1408D
:102C7000024A515CC84010BD08380240F47902088D
:102C800070B50021002200230020274C246804F0A6
:102C90000C0424B1042C04D0082C41D103E02348B7
:102CA00040E023483EE0204C241F246804F03F010C
:102CB0001D4C241F246804F4800484B11C4CB4FB14
:102CC000F1F5194C241F246847F6C076344096FA73
:102CD000A6F6B6FA86F6F44005FB04F20FE0134CB4
:102CE000B4FBF1F5104C241F246847F6C07634403D
:102CF00096FAA6F6B6FA86F6F44005FB04F20A4CFC
:102D0000241F246804F440344FF4403595FAA5F5A7
:102D1000B5FA85F5EC40641C6300B2FBF3F001E00A
:102D2000024800BF00BF70BD083802400024F40014
:102D300040787D0138B504460025207800F0010078
:102D4000002866D0F748006800F00C0004280DD079
:102D5000F448006800F00C00082813D1F148001F67
:102D6000006800F48000B0F5800F0BD1ED48083802
:102D70000068C0F3404000284BD06068002848D16C
:102D8000012038BD0020E749891F0870FFF742F98C
:102D9000054608E0FFF73EF9401B41F288318842C2
:102DA00001D90320EDE7DF4808380068C0F3404050
:102DB0000028EFD12079DB49891F08706068A0B135
:102DC000FFF728F9054608E0FFF724F9401B41F218
:102DD0008831884201D90320D3E7D24808380068F7
:102DE000C0F340400028EFD013E0FFF713F9054689
:102DF00008E0FFF70FF9401B41F28831884201D902
:102E00000320BEE7C74808380068C0F340400028E8
:102E1000EFD1207800F00200022869D1C148006893
:102E200000F00C0058B1BF48006800F00C00082802
:102E300021D1BC48001F006800F48000D8B9B9480F
:102E400008380068C0F3400020B1E068012801D0D4
:102E5000012096E7B3480838006820F0F800F8220F
:102E600092FAA2F2B2FA82F2216991400843AD4986
:102E7000083908603CE0E06828B30120AA490860EE
:102E8000FFF7C8F8054606E0FFF7C4F8401B6428C2
:102E900001D9032075E7A34808380068C0F3400053
:102EA0000028F1D09F480838006820F0F800F82288
:102EB00092FAA2F2B2FA82F221699140084399494A
:102EC0000839086014E0002097490860FFF7A2F86D
:102ED000054606E0FFF79EF8401B642801D9032051
:102EE0004FE7904808380068C0F340000028F1D14F
:102EF000207800F0080008282CD16069A8B10120D2
:102F00008A490860FFF786F8054606E0FFF782F871
:102F1000401B642801D9032033E782486C300068E5
:102F2000C0F340000028F1D014E000207F49086081
:102F3000FFF770F8054606E0FFF76CF8401B6428C1
:102F400001D903201DE777486C300068C0F34000CA
:102F50000028F1D1207800F0040004286FD100BFD0
:102F6000002000906F483830006840F080506D4974
:102F7000383108600846006800F08050009000BFBB
:102F800000BF6B48006840F4807069490860FFF733
:102F900041F8054606E0FFF73DF8401B642801D9DB
:102FA0000320EEE66248006800F480700028F2D04A
:102FB00000205C4968310870FFF72CF8054608E0EE
:102FC000FFF728F8401B41F28831884201D90320DD
:102FD000D7E6544868300068C0F340000028EFD1BD
:102FE000207A504968310870A068A0B1FFF712F844
:102FF000054608E0FFF70EF8401B41F28831884291
:1030000001D90320BDE6474868300068C0F340009E
:103010000028EFD013E0FEF7FDFF054608E0FEF7BD
:10302000F9FF401B41F28831884201D90320A8E60C
:103030003C4868300068C0F340000028EFD1A06928
:10304000F0B33848006800F00C00082872D0A0697E
:10305000022850D1002034490866FEF7DBFF054600
:1030600006E0FEF7D7FF401B642801D9032088E65D
:103070002C4808380068C0F340600028F1D1D4E93A
:103080000701084347F6C07292FAA2F2B2FA82F23E
:10309000616A914008430122A16AC2EB51014FF4D9
:1030A000403292FAA2F2B2FA82F2914008434FF013
:1030B000706292FAA2F2B2FA82F2E16A914000E002
:1030C0003AE008431749091F0860012016490866BD
:1030D000FEF7A0FF054606E0FEF79CFF401B6428B4
:1030E00001D903204DE60F4808380068C0F340605E
:1030F0000028F1D020E000200B490866FEF78AFF87
:10310000054606E0FEF786FF401B642801D9032030
:1031100037E6044808380068C0F340600028F1D161
:103120000AE007E00838024000004742800E4742AC
:1031300000700040012024E6002022E6704702468D
:103140000023106800F1500303EB810318687047F7
:1031500010B50023046804F1500303EB81031A60E7
:1031600010BD00002DE9F04104460D46164600272B
:1031700000BF207F012802D10220BDE8F08101209C
:10318000207700BF0220607700BFCA202168486214
:1031900053202168486200BF2068806800F4806086
:1031A000E0B1FEF737FF074612E0FEF733FFC01B22
:1031B000B0F57A7F0CD900BFFF202168486200BFBC
:1031C0000320607700BF0020207700BF0320D4E7F2
:1031D0002068C068C0F380000028E6D120688068BD
:1031E00020F4806021688860FEF714FF074612E033
:1031F000FEF710FFC01BB0F57A7F0CD900BFFF208F
:103200002168486200BF0320607700BF002020775C
:1032100000BF0320B1E72068C068C0F38000002829
:10322000E6D0206845612068806820F007002168AA
:10323000886020688068304321688860134800688F
:1032400040F480001149086010480830006840F4DC
:1032500080000E49083108602068806840F4804092
:10326000216888602068806840F4806021688860F8
:1032700000BFFF202168486200BF0120607700BFC7
:103280000020207700BF00BF77E70000003C01402E
:103290000449096809B9012100E00021014A1160CF
:1032A000704700008082404210B504462068C06824
:1032B000C0F3802078B12068806800F4804050B16D
:1032C0002046FFF7E5FF2068C06800F0800060F44A
:1032D00090602168C8604FF48000024908600120B6
:1032E000607710BD143C014010B5044601A006F003
:1032F00023FC10BD414C41524D2041210D0A0000DC
:1033000010B504462068C068C0F3002078B120687A
:10331000806800F4805050B12046FFF7E5FF206838
:10332000C06800F0800060F4C0702168C860206848
:10333000C068C0F3402078B12068806800F4005075
:1033400050B12046FFF7FAFE2068C06800F0800008
:1033500060F420702168C8604FF4003002490860B2
:103360000120607710BD0000143C014010B50446F8
:103370000CB9012010BD607F20B9002020772046C5
:1033800000F04EF80220607700BFCA202168486232
:1033900053202168486200BF204605F097FF40B1E6
:1033A00000BFFF202168486200BF04206077012031
:1033B000E0E7206880681949084021688860216931
:1033C0006068084361690843216889680843216887
:1033D00088602168E068086120680169208941EA05
:1033E0000040216808612068C06820F080002168E2
:1033F000C8602068006C20F4802021680864206880
:10340000006CA16908432168086400BFFF2021689F
:10341000486200BF012060770020ABE7BFFF8FFF4D
:1034200010B59AB0044600BF002001901148006812
:1034300040F080500F4908600846006800F0805056
:10344000019000BF00BFFFF7BBF804200E900020E2
:103450001490012010900EA8FFF76CFC2020029021
:10346000C0000C9002A8FFF7B7F8012002490860DD
:103470001AB010BD403802403C0E47422DE9F041E1
:1034800004460D461646002700BF207F012802D1C2
:103490000220BDE8F0810120207700BF0220607784
:1034A0004EB9687800F01000102804D1687800F058
:1034B000EF000A30687086B9E87805F0FAFE030478
:1034C000687805F0F6FE43EA0023A87805F0F1FEDF
:1034D0000343287843EA403711E0687805F0DEFEC0
:1034E0000746A87805F0DAFE0746E8780004697810
:1034F00040EA0120A9780843297840EA413700BF13
:10350000CA202168486253202168486200BF2046D3
:1035100005F0DCFE60B100BFFF202168486200BFFB
:103520000420607700BF0020207700BF0120B0E7B3
:1035300016483840216848602068C06820F0800044
:103540002168C8602068806800F0200080B92046AB
:1035500000F0B8F860B100BFFF202168486200BFEA
:103560000420607700BF0020207700BF012090E793
:1035700000BFFF202168486200BF0120607700BFC4
:103580000020207700BF00BF83E700003FFFFF005F
:103590002DE9F04104460D461646002700BF207F66
:1035A000012802D10220BDE8F0810120207700BF70
:1035B00002206077CEB92068806800F0400000B13A
:1035C00002E00020E87000BF287805F072FE0304D6
:1035D000687805F06EFE43EA0023A87805F069FEDE
:1035E0000343E87843EA004716E02068806800F06B
:1035F000400020B1287805F051FE074602E0002087
:10360000E87000BF28780004697840EA0120A978B2
:103610000843E97840EA014700BFCA2021684862B0
:1036200053202168486200BF204605F04FFE60B17C
:1036300000BFFF202168486200BF0420607700BF00
:103640000020207700BF0120ADE71D4838402168E9
:1036500008602068806820F4802021688860D5E9AF
:10366000030108432168896808432168886020684D
:10367000C06820F080002168C8602068806800F081
:10368000200080B9204600F01DF860B100BFFF2087
:103690002168486200BF0420607700BF00202077C7
:1036A00000BF01207FE700BFFF202168486200BF04
:1036B0000120607700BF0020207700BF00BF72E7C5
:1036C0007F7F7F0070B5044600252068C06820F029
:1036D000A0002168C860FEF79DFC054607E0FEF7E4
:1036E00099FC401BB0F57A7F01D9032070BD20689A
:1036F000C06800F020000028F1D00020F6E770B587
:1037000004460D460CB9012070BD94F82C0028B970
:10371000002084F82D00204600F012F8022084F8E2
:103720002C00211D2068FDF78EFE2946D4E90002F9
:10373000FDF7F3FE012084F82C000020E4E70000F0
:1037400010B586B0044600BF0020009043480068D2
:1037500040F00100414908600846006800F001009F
:10376000009000BF00BF00BF002000903B48083819
:10377000006840F0040039490839086008460068CC
:1037800000F00400009000BF00BF00BF00200090C8
:103790000846006840F0080008600846006800F02D
:1037A0000800009000BF00BF00BF00200090084646
:1037B000006840F0100008600846006800F0100043
:1037C000009000BF00BF00BF0020009008460068C6
:1037D00040F0200008600846006800F020000090DB
:1037E00000BF00BF00BF002000900846006840F006
:1037F000400008600846006800F04000009000BFEC
:1038000000BF0D20019002200290012003900320B0
:1038100004900C20059001A91148FEF7DFFA4CF244
:103820000370019001A90F48FEF7D8FA4FF6837094
:10383000019001A90C48FEF7D1FA4FF63F00019024
:1038400001A90A48FEF7CAFA48F23710019001A907
:103850000748FEF7C3FA06B010BD00003838024032
:1038600000080240000C0240001002400014024018
:103870000018024070B504460D4694F82C0002284A
:1038800000D170BD022084F82C0029462068FDF785
:1038900014FE012084F82C000020F2E770B50446E5
:1038A0000D46164694F82C00022800D170BD022067
:1038B00084F82C00324629462068FDF705FE28686A
:1038C000022803D1052084F82C0002E0012084F8AE
:1038D0002C000020EAE770B504460E4615460CB9E8
:1038E000012070BD94F8490028B9002084F84800F0
:1038F000204600F01DF804F108012068FDF734FDB2
:103900003146A2682068FDF76FFD2946236BD4E994
:103910000102FDF705FDA168206850F8210040F084
:103920000100A268216841F822000020D9E70000C8
:1039300010B586B0044600BF002000902248006801
:1039400040F00100204908600846006800F00100CE
:10395000009000BF00BF00BF002000901A48083848
:10396000006840F0080018490839086008460068F7
:1039700000F00800009000BF00BF00BF00200090D2
:103980000846006840F0100008600846006800F033
:103990001000009000BF00BF4EF2B37001900220F3
:1039A000029001200390032004900C20059001A9AF
:1039B0000648FEF713FA4FF68070019001A90448FB
:1039C000FEF70CFA06B010BD38380240000C024079
:1039D00000100240042808D14FF0E021096941F0AD
:1039E00004014FF0E022116107E04FF0E021096986
:1039F00021F004014FF0E0221161704770B50446D8
:103A00002546681EB0F1807F01D301200FE0681EBB
:103A10004FF0E02148610F214FF0FF3003F0EAFE44
:103A200000204FF0E021886107200861002070BD70
:103A300070477047704710B5044620680069C0F3AE
:103A40004000D8B12068C068C0F34000B0B16FF04A
:103A5000020021680861012020762068806900F05A
:103A6000030018B12046FFF7E5FF05E0204600F00F
:103A7000ADF8204600F0ABF8002020762068006901
:103A8000C0F38000D8B12068C068C0F38000B0B136
:103A90006FF00400216808610220207620688069A8
:103AA00000F4407018B12046FFF7C4FF05E020463F
:103AB00000F08CF8204600F08AF80020207620687C
:103AC0000069C0F3C000D8B12068C068C0F3C0006E
:103AD000B0B16FF0080021680861042020762068EA
:103AE000C06900F0030018B12046FFF7A3FF05E00E
:103AF000204600F06BF8204600F069F800202076A0
:103B000020680069C0F30010D8B12068C068C0F315
:103B10000010B0B16FF01000216808610820207615
:103B20002068C06900F4407018B12046FFF782FF9A
:103B300005E0204600F04AF8204600F048F8002052
:103B400020762068006900F0010058B12068C06844
:103B500000F0010030B16FF00100216808612046DB
:103B600000F036F820680069C0F3C01058B1206832
:103B7000C068C0F3C01030B16FF0800021680861E8
:103B80002046FFF755FF20680069C0F3801058B148
:103B90002068C068C0F3801030B16FF04000216829
:103BA0000861204600F015F820680069C0F3401055
:103BB00058B12068C068C0F3401030B16FF02000E9
:103BC000216808612046FFF734FF10BD7047704739
:103BD000704770477047014691F839007047F8B553
:103BE0000446002500262068006800F001052068D2
:103BF000C06800F480767DB176B100BF00200090EF
:103C000020680068009020684068009000BF00BFF6
:103C1000E06B40F00100E06320680068C0F34005FD
:103C20002068406900F001067DB176B100BF002038
:103C3000009020680068009020684068009000BFF5
:103C400000BFE06B40F00400E06320680068C0F350
:103C500080052068406900F001067DB176B100BFA3
:103C60000020009020680068009020684068009064
:103C700000BF00BFE06B40F00200E0632068006816
:103C8000C0F3C0052068406900F001067DB176B13F
:103C900000BF002000902068006800902068406805
:103CA000009000BF00BFE06B40F00800E0632068B8
:103CB0000068C0F340152068C06800F020061DB100
:103CC00016B1204605F026FD20680068C0F3C01537
:103CD0002068C06800F080061DB116B1204605F0CE
:103CE00089FE20680068C0F380152068C06800F075
:103CF00040061DB116B1204605F0D8FCE06B28B196
:103D0000012084F839002046FFF764FFF8BD10B5A4
:103D100004460CB9012010BDA06900B100E000BF4D
:103D200094F8390028B9002084F83800204600F0C3
:103D300025F8022084F839002068C06820F400507B
:103D40002168C860204605F043FD2068006920F422
:103D50009040216808612068406920F02A002168AD
:103D600048612068C06840F400502168C8600020A5
:103D7000E063012084F839000020CCE710B586B05C
:103D800004462249206888423ED100BF00200090AE
:103D90001F48006840F001001D490860084600689F
:103DA00000F00100009000BF00BF00BF00200090A5
:103DB00017481430006840F01000154914310860AD
:103DC0000846006800F01000009000BF00BF4815D2
:103DD000019002200290012003900220049007200D
:103DE000059001A90B48FDF7F9FF4FF480600190A1
:103DF00001A90848FDF7F2FF2520FEF730FB03225A
:103E000011462520FEF738FB06B010BD001001401A
:103E1000303802400000024030B50346002493F8D9
:103E20003940012C01D0122C37D101B10AB901203F
:103E300030BD00BF93F83800012801D10220F7E718
:103E4000012083F8380000BF99629A85DA85002046
:103E5000D86393F83900122803D1322083F839004F
:103E600002E0222083F839001868C06840F48070AE
:103E70001D68E8601868406940F001001D686861CD
:103E800000BF002083F8380000BF1868C06840F009
:103E900020001D68E8600020CAE70220C8E7000093
:103EA0001D4A0168914236D11C49098801F400413C
:103EB00089BB1A49098801F4804171B11849097810
:103EC0000A2903D00021154A118024E013490988EA
:103ED00041F40041114A11801DE0114909780D2972
:103EE00006D10E49098841F480410C4A118012E044
:103EF0000B490978094A1288C2F30D02094B9954FB
:103F000006490988491C054A118011460988C729B4
:103F100001DD0021118070470010014028000020C1
:103F20002A000020A8680020704700BFFEE70000BC
:103F300010B500200F4908600F48006820F4406069
:103F40000D4908600846006840F480600860002061
:103F50000A49C1F89402022008F0F2F8012005494C
:103F60000860022008F0ECF800200449C1F8900233
:103F700010BD000090824342001C0240008043427A
:103F800000B587B000BF002001901048006840F0E5
:103F900080000E4908600846006800F0800001902B
:103FA00000BF00BF30200290012003900490022047
:103FB000059002A90648FDF711FF01200549086098
:103FC0000549C1F8900207B000BD0000303802403A
:103FD000001C0240948243420080434210B50020FE
:103FE0000F4908600F48006820F440600D490860E0
:103FF0000846006840F48060086001200A49C1F862
:104000009402022008F09CF8012005490860022073
:1040100008F096F800200449C1F8900210BD000095
:1040200090824342001C02400080434270B5054626
:1040300000241648006820F44060144908600846CF
:1040400000680860002616E0002011490860022080
:1040500008F076F801200F49C1F890026006040EBE
:104060000B487C38006808B1601CC4B2012008F01D
:1040700067F8701CC6B2082EE6DB15B9FFF7AEFF75
:1040800001E0FFF755FF204670BD0000001C024014
:10409000908243420080434270B504461548006850
:1040A00020F44060134908600846006840F48060CE
:1040B0000860002010490860002517E0E0090E495B
:1040C000091D08606006040E022008F039F801207E
:1040D0000A49C1F89002022008F032F8002006498F
:1040E0000860022008F02CF8681CC5B2082DE5DB3A
:1040F00070BD0000001C0240908243420080434299
:1041000010B50F48006820F440600D49086008466B
:10411000006840F48060086001200A4908600A498C
:10412000C1F89002042008F00BF80020054908604F
:10413000042008F005F800200349C1F8900210BDE2
:10414000001C0240948243420080434210B50F4855
:10415000006820F440600D4908600846006840F49B
:104160008060086000200A4908600A49C1F894028A
:10417000042007F0E5FF0120054908600549C1F862
:104180009402042007F0DCFF10BD0000001C024078
:10419000908243420080434210B5002413480068D7
:1041A00020F440601149086008460068086001205A
:1041B0000F49086007F0C4FF01200E49C1F89002C2
:1041C00007F0BEFF07E0601CC4B2FA2C03DDFFF766
:1041D000BDFF012010BD0648803800680028F2D1DC
:1041E0000349091F086000BFF4E70000001C0240FB
:1041F000948243420080434200B587B000BF002054
:1042000001902648006840F00100244908600846F3
:10421000006800F00100019000BF00BF00BF002057
:1042200001900846006840F00400086008460068F5
:1042300000F00400019000BF00BF00BF002001900B
:104240000846006840F0800008600846006800F0FA
:104250008000019000BF00BF012002900020039069
:10426000022004900320059002A90D48FDF7B6FD39
:104270004FF400500290002003900120049003208E
:10428000059002A90748FDF7A9FD0C20029002A99C
:104290000548FDF7A3FD07B000BD0000303802401F
:1042A0000000024000080240001C02401CB5FBF761
:1042B00088FF0121072004F0C2FF642007F00AFFF5
:1042C0000021072004F0BBFF642007F003FFFBF789
:1042D0007AFF1A4800788DF80000184840788DF869
:1042E0000100164880788DF802001448C0788DF8D7
:1042F0000300124800798DF80400104840798DF8C9
:1043000005000F480F4908600120486081030D48EF
:104310008160C910C16000210182C0F814D0012160
:1043200081610021C1614FF400010162FDF730FAA3
:1043300008B900201CBD0120FCE700000015022088
:10434000008002404C6B002070B5044600260D48EA
:1043500005880D48006818B1204602F0B1FD0FE055
:104360000848408845430021084602F0B5FC02F0A9
:1043700067FD002602E005490C80761CAE42FAD3A8
:1043800070BD0000006A00202C6B00200000086057
:104390002DE9FF4F81B080460D469146DDF838A0EB
:1043A0001848006840B1CDF800A04A46294640466A
:1043B000049B02F0ABFD21E0A9EB0800401C86B293
:1043C0000498401B401C1FFA80FB002414E02819AD
:1043D00081B2404602F080FC02F032FD002707E087
:1043E00004FB06703AF8100007490880781C87B271
:1043F000B742F5DB601C84B25C45E8DB05B0BDE884
:10440000F08F00002C6B00200000086010B50446FF
:104410005C4884715C48006850B1204602F01EFE82
:104420005948C08A574908805748008B488010BDBA
:10443000002C51D1F020534908804FF4A0704880DF
:104440000846808849F24131884205D04D4880882D
:1044500045F21031884214D12C204A4908812A2083
:1044600048812B2088810846808845F21031884297
:1044700006D14FF4A070434908804FF4F070488093
:104480007BE04048808845F21051884210D14FF4BB
:1044900030503C4908814FF4285048814FF42C504B
:1044A00088814FF4F07008804FF44870488064E0D1
:1044B0003448808841F6631188425ED12C2031490E
:1044C00008812B2048812A2088814FF4F0700880D1
:1044D0004FF44870488050E04FF4A070294908809C
:1044E000F02048800846808849F24131884205D052
:1044F0002448808845F21031884207D12C20214978
:1045000008812A2048812B20888129E01D48808845
:1045100045F21051884210D14FF4305019490881AA
:104520004FF4285048814FF42C5088814FF4487044
:1045300008804FF4F070488012E01248808841F6FD
:10454000631188420CD12C200E4908812A20488111
:104550002B2088814FF4487008804FF4F070488019
:104560000848808845F21031884206D14FF4F07037
:10457000044908804FF4A0704880002002F072FACD
:1045800000BF54E7006A00202C6B002000B595B0F6
:1045900002F0ACFFFE4988800846808818B102F01E
:1045A00017FE02F0F0B900BF00200190F948006842
:1045B00040F00200F74908600846006800F0020079
:1045C000019000BF00BF2020109001201190129098
:1045D0000320139010A9F048FDF700FC4FF0204095
:1045E000EE490860EE484860002088600021EB48F2
:1045F000C16001611021416100218161C16141629D
:104600004FF4805181620021C1624FF48041016307
:104610000021416381634FF48011C1630F20099031
:1046200000200A9046200B9000200F900F2002904F
:10463000002003900F2004900020089002AA09A9EE
:10464000D648FFF748F9322007F044FDD32002F0A6
:10465000EBFB02F0CDF9CE49888002F0C9F9CC49D4
:10466000888002F0C5F9CA498880084680884FF6DC
:10467000FF7101EA0020C649888002F0B9F9C449F7
:1046800089880843C24988800846808849F24131B8
:10469000884278D0D42002F0C7FB02F0A9F9BC49C7
:1046A000888002F0A5F9BA49888002F0A1F9B849DA
:1046B0008880084680884FF6FF7101EA0020B449DF
:1046C000888002F095F9B24989880843B04988800A
:1046D0000846808845F21031884254D04FF45A4041
:1046E00002F0A2FB02F084F9A94988804FF45B40F4
:1046F00002F09AFB02F07CF9A54988800846808880
:104700004FF6FF7101EA0020A14988804FF45C4018
:1047100002F08AFB02F06CF99D49898808439C49A4
:10472000888008468088B0F5004F02D145F21050CD
:1047300088809748808845F21051884223D0A12074
:1047400002F072FB02F054F99149888002F050F9AE
:104750008F498880084680884FF6FF7101EA002063
:104760008B49888002F044F989498988084388493F
:1047700088800846808845F26171884203D141F6FD
:104780006310834988808248818886A005F0D4F927
:104790007F48808849F2413188427CD1CF2002F0A5
:1047A00043FB002002F034FBC12002F031FB30203B
:1047B00002F02EFBED2002F037FB642002F028FB14
:1047C000032002F025FB122002F022FB812002F0E0
:1047D0001FFBE82002F028FB852002F019FB1020C7
:1047E00002F016FB7A2002F013FBCB2002F01CFB38
:1047F000392002F00DFB2C2002F00AFB002002F011
:1048000007FB342002F004FB022002F001FBF7203A
:1048100002F00AFB202002F0FBFAEA2002F004FB7F
:10482000002002F0F5FA002002F0F2FAC02002F0B7
:10483000FBFA1B2002F0ECFAC12002F0F5FA01208D
:1048400002F0E6FAC52002F0EFFA302002F0E0FABA
:10485000302002F0DDFAC72002F0E6FAB72002F0BD
:10486000D7FA362002F0E0FA482002F0D1FA3A20D6
:1048700002F0DAFA552002F0CBFAB12002F0D4FAB5
:10488000002002F0C5FA1A2002F0C2FAB62002F0A7
:10489000CBFA0A2000E0ABE002F0BAFAA22002F064
:1048A000B7FAF22002F0C0FA002002F0B1FA262096
:1048B00002F0BAFA012002F0ABFAE02002F0B4FAFA
:1048C0000F2002F0A5FA2A2002F0A2FA282002F016
:1048D0009FFA082002F09CFA0E2002F099FA0820B4
:1048E00002F096FA542002F093FAA92002F090FA0E
:1048F000432002F08DFA0A2002F08AFA0F2002F01B
:1049000087FA002002F084FA002002F081FA0020E9
:1049100002F07EFA002002F07BFAE12002F084FA35
:10492000002002F075FA152002F072FA172002F04A
:104930006FFA072002F06CFA112002F069FA0620E3
:1049400002F066FA2B2002F063FA562002F060FAB9
:104950003C2002F05DFA052002F05AFA102002F025
:1049600057FA0F2002F054FA3F2002F051FA3F208C
:1049700002F04EFA0F2002F04BFA2B2002F054FA0C
:10498000002002F045FA002002F042FA012011E076
:10499000006A00203038024000040240B069002064
:1049A000040100A0204C43442049443A25780D0AD4
:1049B0000000000002F02CFA3F2002F029FA2A2021
:1049C00002F032FA002002F023FA002002F020FA6E
:1049D000002002F01DFAEF2002F01AFA112002F076
:1049E00023FA782007F076FB292002F01DFAD8E59B
:1049F000FE48808845F21031884240F07C87ED20E7
:104A000002F012FA012002F003FAFE2002F000FA8E
:104A1000EE2002F009FADE2002F0FAF9212002F07D
:104A2000F7F9F12002F000FA012002F0F1F9DF209D
:104A300002F0FAF9102002F0EBF9C42002F0F4F9C8
:104A40008F2002F0E5F9C62002F0EEF9002002F016
:104A5000DFF9E22002F0DCF9E22002F0D9F9E220ED
:104A600002F0D6F9BF2002F0DFF9AA2002F0D0F957
:104A7000B02002F0D9F90D2002F0CAF9002002F0AE
:104A8000C7F90D2002F0C4F9002002F0C1F911208D
:104A900002F0BEF9002002F0BBF9192002F0B8F9CB
:104AA000002002F0B5F9212002F0B2F9002002F056
:104AB000AFF92D2002F0ACF9002002F0A9F93D2059
:104AC00002F0A6F9002002F0A3F95D2002F0A0F99F
:104AD000002002F09DF95D2002F09AF9002002F01A
:104AE00097F9B12002F0A0F9802002F091F900209E
:104AF00002F08EF98B2002F08BF9002002F088F989
:104B0000962002F085F9002002F082F9B22002F02E
:104B10008BF9002002F07CF9002002F079F90220E4
:104B200002F076F9002002F073F9032002F070F928
:104B3000002002F06DF9B32002F076F9002002F0B7
:104B400067F9002002F064F9002002F061F900200A
:104B500002F05EF9002002F05BF9002002F058F943
:104B6000002002F055F9002002F052F9002002F076
:104B70004FF9002002F04CF9002002F049F9002022
:104B800002F046F9002002F043F9002002F040F95B
:104B9000002002F03DF9002002F03AF9002002F076
:104BA00037F9002002F034F9002002F031F900203A
:104BB00002F02EF9002002F02BF9002002F028F973
:104BC000002002F025F9002002F022F9B42002F0C2
:104BD0002BF98B2002F01CF9002002F019F9962025
:104BE00002F016F9002002F013F9A12002F010F9EA
:104BF000002002F00DF9B52002F016F9022002F0B3
:104C000007F9002002F004F9032002F001F9002066
:104C100002F0FEF8042002F0FBF8002002F0F8F8A1
:104C2000B62002F001F9002002F0F2F8002002F0B4
:104C3000EFF8B72002F0F8F8002002F0E9F80020C1
:104C400002F0E6F83F2002F0E3F8002002F0E0F87E
:104C50005E2002F0DDF8002002F0DAF8642002F0B5
:104C6000D7F8002002F0D4F88C2002F0D1F8002010
:104C700002F0CEF8AC2002F0CBF8002002F0C8F829
:104C8000DC2002F0C5F8002002F0C2F8702002F02B
:104C9000BFF8002002F0BCF8902002F0B9F8002024
:104CA00002F0B6F8EB2002F0B3F8002002F0B0F802
:104CB000DC2002F0ADF8002002F0AAF8B82002F0E3
:104CC000B3F8002002F0A4F8002002F0A1F80020C0
:104CD00002F09EF8002002F09BF8002002F098F805
:104CE000002002F095F8002002F092F8002002F077
:104CF0008FF8BA2002F098F8242002F089F80020FA
:104D000002F086F8002002F083F8002002F080F81C
:104D1000C12002F089F8202002F07AF8002002F089
:104D200077F8542002F074F8002002F071F8FF20A8
:104D300002F06EF8002002F06BF8C22002F074F866
:104D40000A2002F065F8002002F062F8042002F068
:104D50005FF8002002F05CF8C32002F065F83C2008
:104D600002F056F8002002F053F83A2002F050F812
:104D7000002002F04DF8392002F04AF8002002F03D
:104D800047F8372002F044F8002002F041F83C20B8
:104D900002F03EF8002002F03BF8362002F038F82E
:104DA000002002F035F8322002F032F8002002F044
:104DB0002FF82F2002F02CF8002002F029F82C20E8
:104DC00002F026F8002002F023F8292002F020F853
:104DD000002002F01DF8262002F01AF8002002F050
:104DE00017F8242002F014F8002001E0006A0020E7
:104DF00002F00EF8242002F00BF8002002F008F870
:104E0000232002F005F8002002F002F83C2001F017
:104E1000FFFF002001F0FCFF362001F0F9FF002029
:104E200001F0F6FF322001F0F3FF002001F0F0FF67
:104E30002F2001F0EDFF002001F0EAFF2C2001F00F
:104E4000E7FF002001F0E4FF292001F0E1FF00204E
:104E500001F0DEFF262001F0DBFF002001F0D8FF8B
:104E6000242001F0D5FF002001F0D2FF242001F022
:104E7000CFFF002001F0CCFF232001F0C9FF00206C
:104E800001F0C6FFC42001F0CFFF622001F0C0FF97
:104E9000002001F0BDFF052001F0BAFF002001F065
:104EA000B7FF842001F0B4FF002001F0B1FFF02033
:104EB00001F0AEFF002001F0ABFF182001F0A8FFC9
:104EC000002001F0A5FFA42001F0A2FF002001F0C6
:104ED0009FFF182001F09CFF002001F099FF502057
:104EE00001F096FF002001F093FF0C2001F090FFED
:104EF000002001F08DFF172001F08AFF002001F053
:104F000087FF952001F084FF002001F081FFF3204E
:104F100001F07EFF002001F07BFFE62001F078FF2A
:104F2000002001F075FFC52001F07EFF322001F066
:104F30006FFF002001F06CFF442001F069FF0020AA
:104F400001F066FF652001F063FF002001F060FFC3
:104F5000762001F05DFF002001F05AFF882001F06B
:104F600057FF002001F054FFC62001F05DFF202014
:104F700001F04EFF002001F04BFF172001F048FF29
:104F8000002001F045FF012001F042FF002001F068
:104F90003FFFC72001F048FF002001F039FF00204B
:104FA00001F036FF002001F033FF002001F030FF58
:104FB000C82001F039FF002001F02AFF002001F095
:104FC00027FF002001F024FF002001F021FFC9206D
:104FD00001F02AFF002001F01BFF002001F018FF64
:104FE000002001F015FF002001F012FF002001F069
:104FF0000FFF002001F00CFF002001F009FF00204E
:1050000001F006FF002001F003FF002001F000FF87
:10501000002001F0FDFE002001F0FAFE002001F06A
:10502000F7FE002001F0F4FE002001F0F1FE002068
:1050300001F0EEFEE02001F0F7FE162001F0E8FEA0
:10504000002001F0E5FE1C2001F0E2FE002001F04E
:10505000DFFE212001F0DCFE002001F0D9FE362029
:1050600001F0D6FE002001F0D3FE462001F0D0FE74
:10507000002001F0CDFE522001F0CAFE002001F018
:10508000C7FE642001F0C4FE002001F0C1FE7A20BA
:1050900001F0BEFE002001F0BBFE8B2001F0B8FE47
:1050A000002001F0B5FE992001F0B2FE002001F0D1
:1050B000AFFEA82001F0ACFE002001F0A9FEB9204F
:1050C00001F0A6FE002001F0A3FEC42001F0A0FE26
:1050D000002001F09DFECA2001F09AFE002001F0A0
:1050E00097FED22001F094FE002001F091FED9201D
:1050F00001F08EFE002001F08BFEE02001F088FE22
:10510000002001F085FEF32001F082FE002001F076
:105110007FFEE12001F088FE162001F079FE0020DC
:1051200001F076FE1C2001F073FE002001F070FEFD
:10513000222001F06DFE002001F06AFE362001F011
:1051400067FE002001F064FE452001F061FE0020B2
:1051500001F05EFE522001F05BFE002001F058FEDF
:10516000642001F055FE002001F052FE7A2001F08B
:105170004FFE002001F04CFE8B2001F049FE002084
:1051800001F046FE992001F043FE002001F040FEB0
:10519000A82001F03DFE002001F03AFEB92001F008
:1051A00037FE002001F034FEC42001F031FE002063
:1051B00001F02EFECA2001F02BFE002001F028FE97
:1051C000D22001F025FE002001F022FED82001F0BF
:1051D0001FFE002001F01CFEE02001F019FE00205F
:1051E00001F016FEF32001F013FE002001F010FE86
:1051F000E22001F019FE052001F00AFE002001F076
:1052000007FE0B2001F004FE002001F001FE1B2030
:1052100001F0FEFD002001F0FBFD342001F0F8FD5F
:10522000002001F0F5FD442001F0F2FD002001F026
:10523000EFFD4F2001F0ECFD002001F0E9FD6120C1
:1052400001F0E6FD002001F0E3FD792001F0E0FD32
:10525000002001F0DDFD882001F0DAFD002001F0E2
:10526000D7FD972001F0D4FD002001F0D1FDA6204C
:1052700001F0CEFD002001F0CBFDB72001F0C8FD0C
:10528000002001F0C5FDC22001F0C2FD002001F0A8
:10529000BFFDC72001F0BCFD002001F0B9FDD12009
:1052A00001F0B6FD002001F0B3FDD62001F0B0FD05
:1052B000002001F0ADFDDD2001F0AAFD002001F08D
:1052C000A7FDF32001F0A4FD002001F0A1FDE320E3
:1052D00001F0AAFD052001F09BFD002001F098FDE2
:1052E0000A2001F095FD002001F092FD1C2001F044
:1052F0008FFD002001F08CFD332001F089FD00209E
:1053000001F086FD442001F083FD002001F080FDC6
:10531000502001F07DFD002001F07AFD622001F0B7
:1053200077FD002001F074FD782001F071FD002070
:1053300001F06EFD882001F06BFD002001F068FD9A
:10534000972001F065FD002001F062FDA62001F02C
:105350005FFD002001F05CFDB72001F059FD002049
:1053600001F056FDC22001F053FD002001F050FD78
:10537000C72001F04DFD002001F04AFDD12001F0D1
:1053800047FD002001F044FDD52001F041FD002043
:1053900001F03EFDDD2001F03BFD002001F038FD75
:1053A000F32001F035FD002001F032FDE42001F092
:1053B0003BFD012001F02CFD002001F029FD012022
:1053C00001F026FD002001F023FD022001F020FD68
:1053D000002001F01DFD2A2001F01AFD002001F03F
:1053E00017FD3C2001F014FD002001F011FD4B20C1
:1053F00001F00EFD002001F00BFD5D2001F008FD25
:10540000002001F005FD742001F002FD002001F0F4
:10541000FFFC842001F0FCFC002001F0F9FC93204B
:1054200001F0F6FC002001F0F3FCA22001F0F0FCFA
:10543000002001F0EDFCB32001F0EAFC002001F0B7
:10544000E7FCBE2001F0E4FC002001F0E1FCC420F8
:1054500001F0DEFC002001F0DBFCCD2001F0D8FCE7
:10546000002001F0D5FCD32001F0D2FC002001F097
:10547000CFFCDD2001F0CCFC002001F0C9FCF320C2
:1054800001F0C6FC002001F0C3FCE52001F0CCFCDB
:10549000002001F0BDFC002001F0BAFC002001F06A
:1054A000B7FC002001F0B4FC022001F0B1FC0020A8
:1054B00001F0AEFC292001F0ABFC002001F0A8FCBB
:1054C0003C2001F0A5FC002001F0A2FC4B2001F0E3
:1054D0009FFC002001F09CFC5D2001F099FC002065
:1054E00001F096FC742001F093FC002001F090FC88
:1054F000842001F08DFC002001F08AFC932001F053
:1055000087FC002001F084FCA22001F081FC002037
:1055100001F07EFCB32001F07BFC002001F078FC60
:10552000BE2001F075FC002001F072FCC42001F0E7
:105530006FFC002001F06CFCCD2001F069FC002024
:1055400001F066FCD32001F063FC002001F060FC58
:10555000DC2001F05DFC002001F05AFCF32001F09A
:1055600057FC002001F054FCE62001F05DFC112006
:1055700001F04EFC002001F04BFC342001F048FC0F
:10558000002001F045FC562001F042FC002001F013
:105590003FFC762001F03CFC002001F039FC772034
:1055A00001F036FC002001F033FC662001F030FCF5
:1055B000002001F02DFC882001F02AFC002001F0E1
:1055C00027FC992001F024FC002001F021FCBB20E5
:1055D00001F01EFC002001F01BFC992001F018FCDA
:1055E000002001F015FC662001F012FC002001F003
:1055F0000FFC552001F00CFC002001F009FC5520A7
:1056000001F006FC002001F003FC452001F000FC45
:10561000002001F0FDFB432001F0FAFB002001F027
:10562000F7FB442001F0F4FB002001F0F1FBE72040
:1056300001F0FAFB322001F0EBFB002001F0E8FB67
:10564000552001F0E5FB002001F0E2FB762001F09F
:10565000DFFB002001F0DCFB662001F0D9FB00201D
:1056600001F0D6FB672001F0D3FB002001F0D0FB56
:10567000672001F0CDFB002001F0CAFB872001F07C
:10568000C7FB002001F0C4FB992001F0C1FB002002
:1056900001F0BEFBBB2001F0BBFB002001F0B8FB1A
:1056A000992001F0B5FB002001F0B2FB772001F05A
:1056B000AFFB002001F0ACFB442001F0A9FB00206F
:1056C00001F0A6FB562001F0A3FB002001F0A0FB97
:1056D000232001F09DFB002001F09AFB332001F014
:1056E00097FB002001F094FB452001F091FB002086
:1056F00001F08EFBE82001F097FB002001F088FB11
:10570000002001F085FB992001F082FB002001F0D0
:105710007FFB872001F07CFB002001F079FB8820D3
:1057200001F076FB002001F073FB772001F070FBA5
:10573000002001F06DFB662001F06AFB002001F003
:1057400067FB882001F064FB002001F061FBAA20C8
:1057500001F05EFB002001F05BFBBB2001F058FB79
:10576000002001F055FB992001F052FB002001F0D0
:105770004FFB662001F04CFB002001F049FB552057
:1057800001F046FB002001F043FB552001F040FBF7
:10579000002001F03DFB442001F03AFB002001F025
:1057A00037FB442001F034FB002001F031FB552091
:1057B00001F02EFB002001F02BFBE92001F034FB6F
:1057C000AA2001F025FB002001F022FB002001F0BF
:1057D0001FFB002001F01CFB002001F025FBAA208C
:1057E00001F016FBCF2001F01FFB002001F010FBA1
:1057F000002001F00DFB002001F00AFB002001F069
:1058000007FB002001F004FB002001F001FB002059
:1058100001F0FEFA002001F0FBFA002001F0F8FA96
:10582000002001F0F5FA002001F0F2FA002001F06A
:10583000EFFA002001F0ECFA002001F0E9FA002074
:1058400001F0E6FA002001F0E3FA002001F0E0FAAE
:10585000F02001F0E9FA002001F0DAFA502001F01E
:10586000D7FA002001F0D4FA002001F0D1FA00208C
:1058700001F0CEFAF32001F0D7FA002001F0C8FAC7
:10588000F92001F0D1FA062001F0C2FA102001F04F
:10589000BFFA292001F0BCFA002001F0B9FA3A2041
:1058A00001F0C2FA552001F0B3FA112001F0BCFA60
:1058B000642006F00FFC292001F0B6FA352001F033
:1058C000B3FA002001F0A4FA512001F0ADFAFF2054
:1058D00001F09EFA532001F0A7FA2C2001F098FA6B
:1058E000552001F0A1FA822001F092FA2C2001F05B
:1058F0009BFA01F048B8FE48808845F21051884272
:105900007ED155214FF4704001F0A4FAAA214FF244
:10591000010001F09FFA52214FF2020001F09AFAC1
:1059200008214FF2030001F095FA01214FF2040023
:1059300001F090FA0D214FF4304001F08BFA0D2167
:105940004BF2010001F086FA0D214BF2020001F04A
:1059500081FA34214FF4364001F07CFA34214BF2C5
:10596000016001F077FA34214BF2026001F072FA23
:105970000D214FF4314001F06DFA0D214BF2011071
:1059800001F068FA0D214BF2021001F063FA3421A4
:105990004FF4374001F05EFA34214BF2017001F010
:1059A00059FA34214BF2027001F054FA00214FF4FD
:1059B000324001F04FFA00214BF2012001F04AFA87
:1059C00000214BF2022001F045FA24214FF4384027
:1059D00001F040FA24214BF6010001F03BFA2421AA
:1059E0004BF6020001F036FA01214FF43F4001F07E
:1059F00031FA0F214FF4334001F02CFA0F2100E06F
:105A0000FEE34BF2013001F025FA0F214BF2023098
:105A100001F020FA34214FF4394001F01BFA34210F
:105A20004BF6011001F016FA34214BF6021001F08A
:105A300011FA08214FF4354001F00CFA08214BF21D
:105A4000015001F007FA08214BF2025001F002FA6E
:105A500003214FF4424001F0FDF924214FF43A4074
:105A600001F0F8F924214BF6012001F0F3F924218B
:105A70004BF6022001F0EEF900214FF43C4001F01A
:105A8000E9F978214BF6014001F0E4F900214BF6E9
:105A9000024001F0DFF900214FF43D4001F0DAF956
:105AA00078214BF6015001F0D5F900214BF6025058
:105AB00001F0D0F900214FF43E4001F0CBF9642110
:105AC0004BF6016001F0C6F900214FF4514001F09E
:105AD000C1F933214DF2011001F0BCF900214DF262
